{
  "contractName": "IntegrityCash",
  "abi": [
    {
      "constant": true,
      "inputs": [],
      "name": "totalSupply",
      "outputs": [
        {
          "name": "",
          "type": "uint256"
        }
      ],
      "payable": false,
      "stateMutability": "view",
      "type": "function"
    },
    {
      "inputs": [],
      "payable": false,
      "stateMutability": "nonpayable",
      "type": "constructor"
    }
  ],
  "bytecode": "0x608060405234801561001057600080fd5b50630bebc200600081905550609e8061002a6000396000f300608060405260043610603f576000357c0100000000000000000000000000000000000000000000000000000000900463ffffffff16806318160ddd146044575b600080fd5b348015604f57600080fd5b506056606c565b6040518082815260200191505060405180910390f35b600054815600a165627a7a72305820d99896dbb07757198af266f1992509eda71dd4a96a9f7d2967adb26fc25f4c030029",
  "source": "pragma solidity ^0.4.24;\n\ncontract IntegrityCash {\n  // Constructor\n  // Set the total number of tokens\n  // Read the total number of tokens\n  uint256 public totalSupply;\n  \n  function IntegrityCash () public {\n    totalSupply = 200000000;\n  }\n    \n}\n\n  \n\n",
  "sourcePath": "/home/jdawg/IntegrityCash-Token/contracts/IntegrityCash.sol",
  "compiler": {
    "name": "solc",
    "version": "0.4.25+commit.59dbf8f1.Emscripten.clang"
  },
  "schemaVersion": "2.0.2",
  "updatedAt": "2020-03-31T01:40:28.556Z"
}